{
  "_format": "hh-sol-artifact-1",
  "contractName": "SafeMail",
  "sourceName": "contracts/SafeMail.sol",
  "abi": [
    {
      "inputs": [
        {
          "internalType": "address",
          "name": "_arbitrator",
          "type": "address"
        },
        {
          "internalType": "bytes",
          "name": "_arbitratorExtraData",
          "type": "bytes"
        }
      ],
      "stateMutability": "nonpayable",
      "type": "constructor"
    },
    {
      "anonymous": false,
      "inputs": [
        {
          "indexed": true,
          "internalType": "address",
          "name": "owner",
          "type": "address"
        },
        {
          "indexed": true,
          "internalType": "address",
          "name": "spender",
          "type": "address"
        },
        {
          "indexed": false,
          "internalType": "uint256",
          "name": "value",
          "type": "uint256"
        }
      ],
      "name": "Approval",
      "type": "event"
    },
    {
      "anonymous": false,
      "inputs": [
        {
          "indexed": true,
          "internalType": "contract Arbitrator",
          "name": "_arbitrator",
          "type": "address"
        },
        {
          "indexed": true,
          "internalType": "uint256",
          "name": "_disputeID",
          "type": "uint256"
        },
        {
          "indexed": false,
          "internalType": "uint256",
          "name": "_metaEvidenceID",
          "type": "uint256"
        },
        {
          "indexed": false,
          "internalType": "uint256",
          "name": "_evidenceGroupID",
          "type": "uint256"
        }
      ],
      "name": "Dispute",
      "type": "event"
    },
    {
      "anonymous": false,
      "inputs": [
        {
          "indexed": true,
          "internalType": "contract Arbitrator",
          "name": "_arbitrator",
          "type": "address"
        },
        {
          "indexed": true,
          "internalType": "uint256",
          "name": "_evidenceGroupID",
          "type": "uint256"
        },
        {
          "indexed": true,
          "internalType": "address",
          "name": "_party",
          "type": "address"
        },
        {
          "indexed": false,
          "internalType": "string",
          "name": "_evidence",
          "type": "string"
        }
      ],
      "name": "Evidence",
      "type": "event"
    },
    {
      "anonymous": false,
      "inputs": [
        {
          "indexed": false,
          "internalType": "uint256",
          "name": "mailId",
          "type": "uint256"
        },
        {
          "indexed": false,
          "internalType": "address",
          "name": "sender",
          "type": "address"
        },
        {
          "indexed": false,
          "internalType": "address",
          "name": "receiver",
          "type": "address"
        },
        {
          "indexed": false,
          "internalType": "string",
          "name": "content",
          "type": "string"
        }
      ],
      "name": "Mail",
      "type": "event"
    },
    {
      "anonymous": false,
      "inputs": [
        {
          "indexed": true,
          "internalType": "uint256",
          "name": "_metaEvidenceID",
          "type": "uint256"
        },
        {
          "indexed": false,
          "internalType": "string",
          "name": "_evidence",
          "type": "string"
        }
      ],
      "name": "MetaEvidence",
      "type": "event"
    },
    {
      "anonymous": false,
      "inputs": [
        {
          "indexed": true,
          "internalType": "address",
          "name": "previousOwner",
          "type": "address"
        },
        {
          "indexed": true,
          "internalType": "address",
          "name": "newOwner",
          "type": "address"
        }
      ],
      "name": "OwnershipTransferred",
      "type": "event"
    },
    {
      "anonymous": false,
      "inputs": [
        {
          "indexed": true,
          "internalType": "contract Arbitrator",
          "name": "_arbitrator",
          "type": "address"
        },
        {
          "indexed": true,
          "internalType": "uint256",
          "name": "_disputeID",
          "type": "uint256"
        },
        {
          "indexed": false,
          "internalType": "uint256",
          "name": "_ruling",
          "type": "uint256"
        }
      ],
      "name": "Ruling",
      "type": "event"
    },
    {
      "anonymous": false,
      "inputs": [
        {
          "indexed": true,
          "internalType": "address",
          "name": "from",
          "type": "address"
        },
        {
          "indexed": true,
          "internalType": "address",
          "name": "to",
          "type": "address"
        },
        {
          "indexed": false,
          "internalType": "uint256",
          "name": "value",
          "type": "uint256"
        }
      ],
      "name": "Transfer",
      "type": "event"
    },
    {
      "inputs": [],
      "name": "DOMAIN_SEPARATOR",
      "outputs": [
        {
          "internalType": "bytes32",
          "name": "",
          "type": "bytes32"
        }
      ],
      "stateMutability": "view",
      "type": "function"
    },
    {
      "inputs": [
        {
          "internalType": "address",
          "name": "owner",
          "type": "address"
        },
        {
          "internalType": "address",
          "name": "spender",
          "type": "address"
        }
      ],
      "name": "allowance",
      "outputs": [
        {
          "internalType": "uint256",
          "name": "",
          "type": "uint256"
        }
      ],
      "stateMutability": "view",
      "type": "function"
    },
    {
      "inputs": [
        {
          "internalType": "address",
          "name": "spender",
          "type": "address"
        },
        {
          "internalType": "uint256",
          "name": "amount",
          "type": "uint256"
        }
      ],
      "name": "approve",
      "outputs": [
        {
          "internalType": "bool",
          "name": "",
          "type": "bool"
        }
      ],
      "stateMutability": "nonpayable",
      "type": "function"
    },
    {
      "inputs": [],
      "name": "arbitrator",
      "outputs": [
        {
          "internalType": "contract Arbitrator",
          "name": "",
          "type": "address"
        }
      ],
      "stateMutability": "view",
      "type": "function"
    },
    {
      "inputs": [],
      "name": "arbitratorExtraData",
      "outputs": [
        {
          "internalType": "bytes",
          "name": "",
          "type": "bytes"
        }
      ],
      "stateMutability": "view",
      "type": "function"
    },
    {
      "inputs": [
        {
          "internalType": "address",
          "name": "account",
          "type": "address"
        }
      ],
      "name": "balanceOf",
      "outputs": [
        {
          "internalType": "uint256",
          "name": "",
          "type": "uint256"
        }
      ],
      "stateMutability": "view",
      "type": "function"
    },
    {
      "inputs": [],
      "name": "decimals",
      "outputs": [
        {
          "internalType": "uint8",
          "name": "",
          "type": "uint8"
        }
      ],
      "stateMutability": "view",
      "type": "function"
    },
    {
      "inputs": [
        {
          "internalType": "address",
          "name": "spender",
          "type": "address"
        },
        {
          "internalType": "uint256",
          "name": "subtractedValue",
          "type": "uint256"
        }
      ],
      "name": "decreaseAllowance",
      "outputs": [
        {
          "internalType": "bool",
          "name": "",
          "type": "bool"
        }
      ],
      "stateMutability": "nonpayable",
      "type": "function"
    },
    {
      "inputs": [
        {
          "internalType": "address",
          "name": "spender",
          "type": "address"
        },
        {
          "internalType": "uint256",
          "name": "addedValue",
          "type": "uint256"
        }
      ],
      "name": "increaseAllowance",
      "outputs": [
        {
          "internalType": "bool",
          "name": "",
          "type": "bool"
        }
      ],
      "stateMutability": "nonpayable",
      "type": "function"
    },
    {
      "inputs": [
        {
          "internalType": "address",
          "name": "to",
          "type": "address"
        },
        {
          "internalType": "uint256",
          "name": "amount",
          "type": "uint256"
        }
      ],
      "name": "mint",
      "outputs": [],
      "stateMutability": "nonpayable",
      "type": "function"
    },
    {
      "inputs": [],
      "name": "name",
      "outputs": [
        {
          "internalType": "string",
          "name": "",
          "type": "string"
        }
      ],
      "stateMutability": "view",
      "type": "function"
    },
    {
      "inputs": [
        {
          "internalType": "address",
          "name": "owner",
          "type": "address"
        }
      ],
      "name": "nonces",
      "outputs": [
        {
          "internalType": "uint256",
          "name": "",
          "type": "uint256"
        }
      ],
      "stateMutability": "view",
      "type": "function"
    },
    {
      "inputs": [],
      "name": "owner",
      "outputs": [
        {
          "internalType": "address",
          "name": "",
          "type": "address"
        }
      ],
      "stateMutability": "view",
      "type": "function"
    },
    {
      "inputs": [
        {
          "internalType": "address",
          "name": "owner",
          "type": "address"
        },
        {
          "internalType": "address",
          "name": "spender",
          "type": "address"
        },
        {
          "internalType": "uint256",
          "name": "value",
          "type": "uint256"
        },
        {
          "internalType": "uint256",
          "name": "deadline",
          "type": "uint256"
        },
        {
          "internalType": "uint8",
          "name": "v",
          "type": "uint8"
        },
        {
          "internalType": "bytes32",
          "name": "r",
          "type": "bytes32"
        },
        {
          "internalType": "bytes32",
          "name": "s",
          "type": "bytes32"
        }
      ],
      "name": "permit",
      "outputs": [],
      "stateMutability": "nonpayable",
      "type": "function"
    },
    {
      "inputs": [],
      "name": "renounceOwnership",
      "outputs": [],
      "stateMutability": "nonpayable",
      "type": "function"
    },
    {
      "inputs": [
        {
          "internalType": "uint256",
          "name": "mailId",
          "type": "uint256"
        },
        {
          "internalType": "address",
          "name": "sender",
          "type": "address"
        }
      ],
      "name": "reportSpam",
      "outputs": [],
      "stateMutability": "payable",
      "type": "function"
    },
    {
      "inputs": [
        {
          "internalType": "uint256",
          "name": "_disputeID",
          "type": "uint256"
        },
        {
          "internalType": "uint256",
          "name": "_ruling",
          "type": "uint256"
        }
      ],
      "name": "rule",
      "outputs": [],
      "stateMutability": "nonpayable",
      "type": "function"
    },
    {
      "inputs": [
        {
          "internalType": "address",
          "name": "_to",
          "type": "address"
        },
        {
          "internalType": "string",
          "name": "content",
          "type": "string"
        }
      ],
      "name": "sendMail",
      "outputs": [],
      "stateMutability": "nonpayable",
      "type": "function"
    },
    {
      "inputs": [
        {
          "internalType": "address",
          "name": "_addr",
          "type": "address"
        }
      ],
      "name": "setStakeAddr",
      "outputs": [],
      "stateMutability": "nonpayable",
      "type": "function"
    },
    {
      "inputs": [],
      "name": "symbol",
      "outputs": [
        {
          "internalType": "string",
          "name": "",
          "type": "string"
        }
      ],
      "stateMutability": "view",
      "type": "function"
    },
    {
      "inputs": [],
      "name": "totalSupply",
      "outputs": [
        {
          "internalType": "uint256",
          "name": "",
          "type": "uint256"
        }
      ],
      "stateMutability": "view",
      "type": "function"
    },
    {
      "inputs": [
        {
          "internalType": "address",
          "name": "recipient",
          "type": "address"
        },
        {
          "internalType": "uint256",
          "name": "amount",
          "type": "uint256"
        }
      ],
      "name": "transfer",
      "outputs": [
        {
          "internalType": "bool",
          "name": "",
          "type": "bool"
        }
      ],
      "stateMutability": "nonpayable",
      "type": "function"
    },
    {
      "inputs": [
        {
          "internalType": "address",
          "name": "sender",
          "type": "address"
        },
        {
          "internalType": "address",
          "name": "recipient",
          "type": "address"
        },
        {
          "internalType": "uint256",
          "name": "amount",
          "type": "uint256"
        }
      ],
      "name": "transferFrom",
      "outputs": [
        {
          "internalType": "bool",
          "name": "",
          "type": "bool"
        }
      ],
      "stateMutability": "nonpayable",
      "type": "function"
    },
    {
      "inputs": [
        {
          "internalType": "address",
          "name": "newOwner",
          "type": "address"
        }
      ],
      "name": "transferOwnership",
      "outputs": [],
      "stateMutability": "nonpayable",
      "type": "function"
    }
  ],
  "bytecode": "0x6101406040527f6e71edae12b1b97f4d1f60370fef10105fa2faae0126114a169c64845d6126c9610120908152506000600b553480156200003f57600080fd5b50604051620045383803806200453883398181016040528101906200006591906200070f565b6040518060400160405280600481526020017f4d61696c00000000000000000000000000000000000000000000000000000000815250806040518060400160405280600181526020017f31000000000000000000000000000000000000000000000000000000000000008152506040518060400160405280600481526020017f4d61696c000000000000000000000000000000000000000000000000000000008152506040518060400160405280600481526020017f4d41494c0000000000000000000000000000000000000000000000000000000081525081600390805190602001906200015692919062000545565b5080600490805190602001906200016f92919062000545565b5050506200019262000186620002af60201b60201c565b620002b760201b60201c565b60008280519060200120905060008280519060200120905060007f8b73c3c69bb8fe3d512ecc4cf759cc79239f7b179b0ffacaa9a75d522b39400f90508260c081815250508160e081815250504660a08181525050620001fa8184846200037d60201b60201c565b608081815250508061010081815250505050505050506200024d3362000225620003b960201b60201c565b600a62000233919062000987565b606462000241919062000ac4565b620003c260201b60201c565b81600760006101000a81548173ffffffffffffffffffffffffffffffffffffffff021916908373ffffffffffffffffffffffffffffffffffffffff1602179055508060089080519060200190620002a6929190620005d6565b50505062000d0a565b600033905090565b6000600560009054906101000a900473ffffffffffffffffffffffffffffffffffffffff16905081600560006101000a81548173ffffffffffffffffffffffffffffffffffffffff021916908373ffffffffffffffffffffffffffffffffffffffff1602179055508173ffffffffffffffffffffffffffffffffffffffff168173ffffffffffffffffffffffffffffffffffffffff167f8be0079c531659141344cd1fd0a4f28419497f9722a3daafe3b4186f6b6457e060405160405180910390a35050565b600083838346306040516020016200039a959493929190620007c3565b6040516020818303038152906040528051906020012090509392505050565b60006012905090565b600073ffffffffffffffffffffffffffffffffffffffff168273ffffffffffffffffffffffffffffffffffffffff16141562000435576040517f08c379a00000000000000000000000000000000000000000000000000000000081526004016200042c9062000820565b60405180910390fd5b62000449600083836200053b60201b60201c565b80600260008282546200045d9190620008cf565b92505081905550806000808473ffffffffffffffffffffffffffffffffffffffff1673ffffffffffffffffffffffffffffffffffffffff1681526020019081526020016000206000828254620004b49190620008cf565b925050819055508173ffffffffffffffffffffffffffffffffffffffff16600073ffffffffffffffffffffffffffffffffffffffff167fddf252ad1be2c89b69c2b068fc378daa952ba7f163c4a11628f55a4df523b3ef836040516200051b919062000842565b60405180910390a362000537600083836200054060201b60201c565b5050565b505050565b505050565b828054620005539062000bb0565b90600052602060002090601f016020900481019282620005775760008555620005c3565b82601f106200059257805160ff1916838001178555620005c3565b82800160010185558215620005c3579182015b82811115620005c2578251825591602001919060010190620005a5565b5b509050620005d2919062000667565b5090565b828054620005e49062000bb0565b90600052602060002090601f01602090048101928262000608576000855562000654565b82601f106200062357805160ff191683800117855562000654565b8280016001018555821562000654579182015b828111156200065357825182559160200191906001019062000636565b5b50905062000663919062000667565b5090565b5b808211156200068257600081600090555060010162000668565b5090565b60006200069d620006978462000888565b6200085f565b905082815260208101848484011115620006b657600080fd5b620006c384828562000b7a565b509392505050565b600081519050620006dc8162000cf0565b92915050565b600082601f830112620006f457600080fd5b81516200070684826020860162000686565b91505092915050565b600080604083850312156200072357600080fd5b60006200073385828601620006cb565b925050602083015167ffffffffffffffff8111156200075157600080fd5b6200075f85828601620006e2565b9150509250929050565b620007748162000b25565b82525050565b620007858162000b39565b82525050565b60006200079a601f83620008be565b9150620007a78262000cc7565b602082019050919050565b620007bd8162000b63565b82525050565b600060a082019050620007da60008301886200077a565b620007e960208301876200077a565b620007f860408301866200077a565b620008076060830185620007b2565b62000816608083018462000769565b9695505050505050565b600060208201905081810360008301526200083b816200078b565b9050919050565b6000602082019050620008596000830184620007b2565b92915050565b60006200086b6200087e565b905062000879828262000be6565b919050565b6000604051905090565b600067ffffffffffffffff821115620008a657620008a562000c7a565b5b620008b18262000ca9565b9050602081019050919050565b600082825260208201905092915050565b6000620008dc8262000b63565b9150620008e98362000b63565b9250827fffffffffffffffffffffffffffffffffffffffffffffffffffffffffffffffff0382111562000921576200092062000c1c565b5b828201905092915050565b6000808291508390505b60018511156200097e5780860481111562000956576200095562000c1c565b5b6001851615620009665780820291505b8081029050620009768562000cba565b945062000936565b94509492505050565b6000620009948262000b63565b9150620009a18362000b6d565b9250620009d07fffffffffffffffffffffffffffffffffffffffffffffffffffffffffffffffff8484620009d8565b905092915050565b600082620009ea576001905062000abd565b81620009fa576000905062000abd565b816001811462000a13576002811462000a1e5762000a54565b600191505062000abd565b60ff84111562000a335762000a3262000c1c565b5b8360020a91508482111562000a4d5762000a4c62000c1c565b5b5062000abd565b5060208310610133831016604e8410600b841016171562000a8e5782820a90508381111562000a885762000a8762000c1c565b5b62000abd565b62000a9d84848460016200092c565b9250905081840481111562000ab75762000ab662000c1c565b5b81810290505b9392505050565b600062000ad18262000b63565b915062000ade8362000b63565b9250817fffffffffffffffffffffffffffffffffffffffffffffffffffffffffffffffff048311821515161562000b1a5762000b1962000c1c565b5b828202905092915050565b600062000b328262000b43565b9050919050565b6000819050919050565b600073ffffffffffffffffffffffffffffffffffffffff82169050919050565b6000819050919050565b600060ff82169050919050565b60005b8381101562000b9a57808201518184015260208101905062000b7d565b8381111562000baa576000848401525b50505050565b6000600282049050600182168062000bc957607f821691505b6020821081141562000be05762000bdf62000c4b565b5b50919050565b62000bf18262000ca9565b810181811067ffffffffffffffff8211171562000c135762000c1262000c7a565b5b80604052505050565b7f4e487b7100000000000000000000000000000000000000000000000000000000600052601160045260246000fd5b7f4e487b7100000000000000000000000000000000000000000000000000000000600052602260045260246000fd5b7f4e487b7100000000000000000000000000000000000000000000000000000000600052604160045260246000fd5b6000601f19601f8301169050919050565b60008160011c9050919050565b7f45524332303a206d696e7420746f20746865207a65726f206164647265737300600082015250565b62000cfb8162000b25565b811462000d0757600080fd5b50565b60805160a05160c05160e05161010051610120516137de62000d5a60003960006111bf015260006119f701526000611a3901526000611a18015260006119a4015260006119cc01526137de6000f3fe60806040526004361061014b5760003560e01c806370a08231116100b6578063a9059cbb1161006f578063a9059cbb1461049b578063a9e51d32146104d8578063bd875fee14610501578063d505accf1461052a578063dd62ed3e14610553578063f2fde38b146105905761014b565b806370a0823114610377578063715018a6146103b45780637ecebe00146103cb5780638da5cb5b1461040857806395d89b4114610433578063a457c2d71461045e5761014b565b8063313ce56711610108578063313ce567146102745780633644e5151461029f57806339509351146102ca5780633fe93c7f1461030757806340c10f19146103235780636cc6cde11461034c5761014b565b806306fdde0314610150578063095ea7b31461017b5780630c7ac7b6146101b857806318160ddd146101e357806323b872dd1461020e578063311a6c561461024b575b600080fd5b34801561015c57600080fd5b506101656105b9565b6040516101729190612aa2565b60405180910390f35b34801561018757600080fd5b506101a2600480360381019061019d9190612372565b61064b565b6040516101af91906128bb565b60405180910390f35b3480156101c457600080fd5b506101cd610669565b6040516101da91906129ea565b60405180910390f35b3480156101ef57600080fd5b506101f86106f7565b6040516102059190612d04565b60405180910390f35b34801561021a57600080fd5b5061023560048036038101906102309190612231565b610701565b60405161024291906128bb565b60405180910390f35b34801561025757600080fd5b50610272600480360381019061026d9190612413565b6107f9565b005b34801561028057600080fd5b50610289610908565b6040516102969190612d6b565b60405180910390f35b3480156102ab57600080fd5b506102b4610911565b6040516102c191906128d6565b60405180910390f35b3480156102d657600080fd5b506102f160048036038101906102ec9190612372565b610920565b6040516102fe91906128bb565b60405180910390f35b610321600480360381019061031c91906123d7565b6109cc565b005b34801561032f57600080fd5b5061034a60048036038101906103459190612372565b610b06565b005b34801561035857600080fd5b50610361610b90565b60405161036e9190612a2e565b60405180910390f35b34801561038357600080fd5b5061039e600480360381019061039991906121cc565b610bb6565b6040516103ab9190612d04565b60405180910390f35b3480156103c057600080fd5b506103c9610bfe565b005b3480156103d757600080fd5b506103f260048036038101906103ed91906121cc565b610c86565b6040516103ff9190612d04565b60405180910390f35b34801561041457600080fd5b5061041d610cd6565b60405161042a91906128a0565b60405180910390f35b34801561043f57600080fd5b50610448610d00565b6040516104559190612aa2565b60405180910390f35b34801561046a57600080fd5b5061048560048036038101906104809190612372565b610d92565b60405161049291906128bb565b60405180910390f35b3480156104a757600080fd5b506104c260048036038101906104bd9190612372565b610e7d565b6040516104cf91906128bb565b60405180910390f35b3480156104e457600080fd5b506104ff60048036038101906104fa91906121cc565b610e9b565b005b34801561050d57600080fd5b506105286004803603810190610523919061231e565b610f5b565b005b34801561053657600080fd5b50610551600480360381019061054c9190612280565b611178565b005b34801561055f57600080fd5b5061057a600480360381019061057591906121f5565b6112ba565b6040516105879190612d04565b60405180910390f35b34801561059c57600080fd5b506105b760048036038101906105b291906121cc565b611341565b005b6060600380546105c89061313e565b80601f01602080910402602001604051908101604052809291908181526020018280546105f49061313e565b80156106415780601f1061061657610100808354040283529160200191610641565b820191906000526020600020905b81548152906001019060200180831161062457829003601f168201915b5050505050905090565b600061065f610658611439565b8484611441565b6001905092915050565b600880546106769061313e565b80601f01602080910402602001604051908101604052809291908181526020018280546106a29061313e565b80156106ef5780601f106106c4576101008083540402835291602001916106ef565b820191906000526020600020905b8154815290600101906020018083116106d257829003601f168201915b505050505081565b6000600254905090565b600061070e84848461160c565b6000600160008673ffffffffffffffffffffffffffffffffffffffff1673ffffffffffffffffffffffffffffffffffffffff1681526020019081526020016000206000610759611439565b73ffffffffffffffffffffffffffffffffffffffff1673ffffffffffffffffffffffffffffffffffffffff168152602001908152602001600020549050828110156107d9576040517f08c379a00000000000000000000000000000000000000000000000000000000081526004016107d090612c24565b60405180910390fd5b6107ed856107e5611439565b858403611441565b60019150509392505050565b600760009054906101000a900473ffffffffffffffffffffffffffffffffffffffff1673ffffffffffffffffffffffffffffffffffffffff163373ffffffffffffffffffffffffffffffffffffffff1614610889576040517f08c379a000000000000000000000000000000000000000000000000000000000815260040161088090612be4565b60405180910390fd5b81600760009054906101000a900473ffffffffffffffffffffffffffffffffffffffff1673ffffffffffffffffffffffffffffffffffffffff167f394027a5fa6e098a1191094d1719d6929b9abc535fcc0c8f448d6a4e75622276836040516108f29190612d04565b60405180910390a3610904828261188d565b5050565b60006012905090565b600061091b6119a0565b905090565b60006109c261092d611439565b84846001600061093b611439565b73ffffffffffffffffffffffffffffffffffffffff1673ffffffffffffffffffffffffffffffffffffffff16815260200190815260200160002060008873ffffffffffffffffffffffffffffffffffffffff1673ffffffffffffffffffffffffffffffffffffffff168152602001908152602001600020546109bd9190612e34565b611441565b6001905092915050565b6000600760009054906101000a900473ffffffffffffffffffffffffffffffffffffffff1673ffffffffffffffffffffffffffffffffffffffff1663f7434ea960086040518263ffffffff1660e01b8152600401610a2a9190612a0c565b602060405180830381600087803b158015610a4457600080fd5b505af1158015610a58573d6000803e3d6000fd5b505050506040513d601f19601f82011682018060405250810190610a7c91906123ae565b9050803414610ac0576040517f08c379a0000000000000000000000000000000000000000000000000000000008152600401610ab790612ce4565b60405180910390fd5b600a600084815260200190815260200160002060006101000a81549073ffffffffffffffffffffffffffffffffffffffff0219169055610b01838383611a63565b505050565b610b0e611439565b73ffffffffffffffffffffffffffffffffffffffff16610b2c610cd6565b73ffffffffffffffffffffffffffffffffffffffff1614610b82576040517f08c379a0000000000000000000000000000000000000000000000000000000008152600401610b7990612c44565b60405180910390fd5b610b8c8282611c37565b5050565b600760009054906101000a900473ffffffffffffffffffffffffffffffffffffffff1681565b60008060008373ffffffffffffffffffffffffffffffffffffffff1673ffffffffffffffffffffffffffffffffffffffff168152602001908152602001600020549050919050565b610c06611439565b73ffffffffffffffffffffffffffffffffffffffff16610c24610cd6565b73ffffffffffffffffffffffffffffffffffffffff1614610c7a576040517f08c379a0000000000000000000000000000000000000000000000000000000008152600401610c7190612c44565b60405180910390fd5b610c846000611d97565b565b6000610ccf600660008473ffffffffffffffffffffffffffffffffffffffff1673ffffffffffffffffffffffffffffffffffffffff168152602001908152602001600020611e5d565b9050919050565b6000600560009054906101000a900473ffffffffffffffffffffffffffffffffffffffff16905090565b606060048054610d0f9061313e565b80601f0160208091040260200160405190810160405280929190818152602001828054610d3b9061313e565b8015610d885780601f10610d5d57610100808354040283529160200191610d88565b820191906000526020600020905b815481529060010190602001808311610d6b57829003601f168201915b5050505050905090565b60008060016000610da1611439565b73ffffffffffffffffffffffffffffffffffffffff1673ffffffffffffffffffffffffffffffffffffffff16815260200190815260200160002060008573ffffffffffffffffffffffffffffffffffffffff1673ffffffffffffffffffffffffffffffffffffffff16815260200190815260200160002054905082811015610e5e576040517f08c379a0000000000000000000000000000000000000000000000000000000008152600401610e5590612ca4565b60405180910390fd5b610e72610e69611439565b85858403611441565b600191505092915050565b6000610e91610e8a611439565b848461160c565b6001905092915050565b610ea3611439565b73ffffffffffffffffffffffffffffffffffffffff16610ec1610cd6565b73ffffffffffffffffffffffffffffffffffffffff1614610f17576040517f08c379a0000000000000000000000000000000000000000000000000000000008152600401610f0e90612c44565b60405180910390fd5b80600e60006101000a81548173ffffffffffffffffffffffffffffffffffffffff021916908373ffffffffffffffffffffffffffffffffffffffff16021790555050565b610f63610908565b600a610f6f9190612edd565b6001610f7b9190612ffb565b610f8433610bb6565b1015610fc5576040517f08c379a0000000000000000000000000000000000000000000000000000000008152600401610fbc90612ba4565b60405180910390fd5b600960003373ffffffffffffffffffffffffffffffffffffffff1673ffffffffffffffffffffffffffffffffffffffff1681526020019081526020016000206000815480929190611015906131a1565b919050555061106633600e60009054906101000a900473ffffffffffffffffffffffffffffffffffffffff16611049610908565b600a6110559190612edd565b60016110619190612ffb565b610701565b5033600a6000600960003373ffffffffffffffffffffffffffffffffffffffff1673ffffffffffffffffffffffffffffffffffffffff16815260200190815260200160002054815260200190815260200160002060006101000a81548173ffffffffffffffffffffffffffffffffffffffff021916908373ffffffffffffffffffffffffffffffffffffffff1602179055507ff72845a67259aa73ef1303febb665a159958cb21ad0407e5a7d4b0b07c006898600960003373ffffffffffffffffffffffffffffffffffffffff1673ffffffffffffffffffffffffffffffffffffffff1681526020019081526020016000205433848460405161116c9493929190612d1f565b60405180910390a15050565b834211156111bb576040517f08c379a00000000000000000000000000000000000000000000000000000000081526004016111b290612b44565b60405180910390fd5b60007f00000000000000000000000000000000000000000000000000000000000000008888886111ea8c611e6b565b89604051602001611200969594939291906128f1565b604051602081830303815290604052805190602001209050600061122382611ec9565b9050600061123382878787611ee3565b90508973ffffffffffffffffffffffffffffffffffffffff168173ffffffffffffffffffffffffffffffffffffffff16146112a3576040517f08c379a000000000000000000000000000000000000000000000000000000000815260040161129a90612c04565b60405180910390fd5b6112ae8a8a8a611441565b50505050505050505050565b6000600160008473ffffffffffffffffffffffffffffffffffffffff1673ffffffffffffffffffffffffffffffffffffffff16815260200190815260200160002060008373ffffffffffffffffffffffffffffffffffffffff1673ffffffffffffffffffffffffffffffffffffffff16815260200190815260200160002054905092915050565b611349611439565b73ffffffffffffffffffffffffffffffffffffffff16611367610cd6565b73ffffffffffffffffffffffffffffffffffffffff16146113bd576040517f08c379a00000000000000000000000000000000000000000000000000000000081526004016113b490612c44565b60405180910390fd5b600073ffffffffffffffffffffffffffffffffffffffff168173ffffffffffffffffffffffffffffffffffffffff16141561142d576040517f08c379a000000000000000000000000000000000000000000000000000000000815260040161142490612b04565b60405180910390fd5b61143681611d97565b50565b600033905090565b600073ffffffffffffffffffffffffffffffffffffffff168373ffffffffffffffffffffffffffffffffffffffff1614156114b1576040517f08c379a00000000000000000000000000000000000000000000000000000000081526004016114a890612c84565b60405180910390fd5b600073ffffffffffffffffffffffffffffffffffffffff168273ffffffffffffffffffffffffffffffffffffffff161415611521576040517f08c379a000000000000000000000000000000000000000000000000000000000815260040161151890612b24565b60405180910390fd5b80600160008573ffffffffffffffffffffffffffffffffffffffff1673ffffffffffffffffffffffffffffffffffffffff16815260200190815260200160002060008473ffffffffffffffffffffffffffffffffffffffff1673ffffffffffffffffffffffffffffffffffffffff168152602001908152602001600020819055508173ffffffffffffffffffffffffffffffffffffffff168373ffffffffffffffffffffffffffffffffffffffff167f8c5be1e5ebec7d5bd14f71427d1e84f3dd0314c0f7b2291e5b200ac8c7c3b925836040516115ff9190612d04565b60405180910390a3505050565b600073ffffffffffffffffffffffffffffffffffffffff168373ffffffffffffffffffffffffffffffffffffffff16141561167c576040517f08c379a000000000000000000000000000000000000000000000000000000000815260040161167390612c64565b60405180910390fd5b600073ffffffffffffffffffffffffffffffffffffffff168273ffffffffffffffffffffffffffffffffffffffff1614156116ec576040517f08c379a00000000000000000000000000000000000000000000000000000000081526004016116e390612ae4565b60405180910390fd5b6116f783838361206e565b60008060008573ffffffffffffffffffffffffffffffffffffffff1673ffffffffffffffffffffffffffffffffffffffff1681526020019081526020016000205490508181101561177d576040517f08c379a000000000000000000000000000000000000000000000000000000000815260040161177490612b64565b60405180910390fd5b8181036000808673ffffffffffffffffffffffffffffffffffffffff1673ffffffffffffffffffffffffffffffffffffffff16815260200190815260200160002081905550816000808573ffffffffffffffffffffffffffffffffffffffff1673ffffffffffffffffffffffffffffffffffffffff16815260200190815260200160002060008282546118109190612e34565b925050819055508273ffffffffffffffffffffffffffffffffffffffff168473ffffffffffffffffffffffffffffffffffffffff167fddf252ad1be2c89b69c2b068fc378daa952ba7f163c4a11628f55a4df523b3ef846040516118749190612d04565b60405180910390a3611887848484612073565b50505050565b600281141561191b57611915600e60009054906101000a900473ffffffffffffffffffffffffffffffffffffffff16600d600085815260200190815260200160002060009054906101000a900473ffffffffffffffffffffffffffffffffffffffff166118f8610908565b600a6119049190612edd565b60016119109190612ffb565b610701565b5061199c565b61199a600e60009054906101000a900473ffffffffffffffffffffffffffffffffffffffff16600c600085815260200190815260200160002060009054906101000a900473ffffffffffffffffffffffffffffffffffffffff1661197d610908565b600a6119899190612edd565b60016119959190612ffb565b610701565b505b5050565b60007f00000000000000000000000000000000000000000000000000000000000000004614156119f2577f00000000000000000000000000000000000000000000000000000000000000009050611a60565b611a5d7f00000000000000000000000000000000000000000000000000000000000000007f00000000000000000000000000000000000000000000000000000000000000007f0000000000000000000000000000000000000000000000000000000000000000612078565b90505b90565b6000600760009054906101000a900473ffffffffffffffffffffffffffffffffffffffff1673ffffffffffffffffffffffffffffffffffffffff1663c13517e183600260086040518463ffffffff1660e01b8152600401611ac5929190612a72565b6020604051808303818588803b158015611ade57600080fd5b505af1158015611af2573d6000803e3d6000fd5b50505050506040513d601f19601f82011682018060405250810190611b1791906123ae565b905082600c600083815260200190815260200160002060006101000a81548173ffffffffffffffffffffffffffffffffffffffff021916908373ffffffffffffffffffffffffffffffffffffffff16021790555033600d600083815260200190815260200160002060006101000a81548173ffffffffffffffffffffffffffffffffffffffff021916908373ffffffffffffffffffffffffffffffffffffffff16021790555080600760009054906101000a900473ffffffffffffffffffffffffffffffffffffffff1673ffffffffffffffffffffffffffffffffffffffff167f74baab670a4015ab2f1b467c5252a96141a2573f2908e58a92081e80d3cfde3d600080604051611c29929190612a49565b60405180910390a350505050565b600073ffffffffffffffffffffffffffffffffffffffff168273ffffffffffffffffffffffffffffffffffffffff161415611ca7576040517f08c379a0000000000000000000000000000000000000000000000000000000008152600401611c9e90612cc4565b60405180910390fd5b611cb36000838361206e565b8060026000828254611cc59190612e34565b92505081905550806000808473ffffffffffffffffffffffffffffffffffffffff1673ffffffffffffffffffffffffffffffffffffffff1681526020019081526020016000206000828254611d1a9190612e34565b925050819055508173ffffffffffffffffffffffffffffffffffffffff16600073ffffffffffffffffffffffffffffffffffffffff167fddf252ad1be2c89b69c2b068fc378daa952ba7f163c4a11628f55a4df523b3ef83604051611d7f9190612d04565b60405180910390a3611d9360008383612073565b5050565b6000600560009054906101000a900473ffffffffffffffffffffffffffffffffffffffff16905081600560006101000a81548173ffffffffffffffffffffffffffffffffffffffff021916908373ffffffffffffffffffffffffffffffffffffffff1602179055508173ffffffffffffffffffffffffffffffffffffffff168173ffffffffffffffffffffffffffffffffffffffff167f8be0079c531659141344cd1fd0a4f28419497f9722a3daafe3b4186f6b6457e060405160405180910390a35050565b600081600001549050919050565b600080600660008473ffffffffffffffffffffffffffffffffffffffff1673ffffffffffffffffffffffffffffffffffffffff1681526020019081526020016000209050611eb881611e5d565b9150611ec3816120b2565b50919050565b6000611edc611ed66119a0565b836120c8565b9050919050565b60007f7fffffffffffffffffffffffffffffff5d576e7357a4501ddfe92f46681b20a08260001c1115611f4b576040517f08c379a0000000000000000000000000000000000000000000000000000000008152600401611f4290612b84565b60405180910390fd5b601b8460ff161480611f605750601c8460ff16145b611f9f576040517f08c379a0000000000000000000000000000000000000000000000000000000008152600401611f9690612bc4565b60405180910390fd5b600060018686868660405160008152602001604052604051611fc494939291906129a5565b6020604051602081039080840390855afa158015611fe6573d6000803e3d6000fd5b505050602060405103519050600073ffffffffffffffffffffffffffffffffffffffff168173ffffffffffffffffffffffffffffffffffffffff161415612062576040517f08c379a000000000000000000000000000000000000000000000000000000000815260040161205990612ac4565b60405180910390fd5b80915050949350505050565b505050565b505050565b60008383834630604051602001612093959493929190612952565b6040516020818303038152906040528051906020012090509392505050565b6001816000016000828254019250508190555050565b600082826040516020016120dd929190612869565b60405160208183030381529060405280519060200120905092915050565b600061210e61210984612dab565b612d86565b90508281526020810184848401111561212657600080fd5b6121318482856130fc565b509392505050565b6000813590506121488161374c565b92915050565b60008135905061215d81613763565b92915050565b600082601f83011261217457600080fd5b81356121848482602086016120fb565b91505092915050565b60008135905061219c8161377a565b92915050565b6000815190506121b18161377a565b92915050565b6000813590506121c681613791565b92915050565b6000602082840312156121de57600080fd5b60006121ec84828501612139565b91505092915050565b6000806040838503121561220857600080fd5b600061221685828601612139565b925050602061222785828601612139565b9150509250929050565b60008060006060848603121561224657600080fd5b600061225486828701612139565b935050602061226586828701612139565b92505060406122768682870161218d565b9150509250925092565b600080600080600080600060e0888a03121561229b57600080fd5b60006122a98a828b01612139565b97505060206122ba8a828b01612139565b96505060406122cb8a828b0161218d565b95505060606122dc8a828b0161218d565b94505060806122ed8a828b016121b7565b93505060a06122fe8a828b0161214e565b92505060c061230f8a828b0161214e565b91505092959891949750929550565b6000806040838503121561233157600080fd5b600061233f85828601612139565b925050602083013567ffffffffffffffff81111561235c57600080fd5b61236885828601612163565b9150509250929050565b6000806040838503121561238557600080fd5b600061239385828601612139565b92505060206123a48582860161218d565b9150509250929050565b6000602082840312156123c057600080fd5b60006123ce848285016121a2565b91505092915050565b600080604083850312156123ea57600080fd5b60006123f88582860161218d565b925050602061240985828601612139565b9150509250929050565b6000806040838503121561242657600080fd5b60006124348582860161218d565b92505060206124458582860161218d565b9150509250929050565b61245881613055565b82525050565b61246781613067565b82525050565b61247681613073565b82525050565b61248d61248882613073565b6131ea565b82525050565b600061249e82612df1565b6124a88185612e07565b93506124b881856020860161310b565b6124c181613281565b840191505092915050565b600081546124d98161313e565b6124e38186612e07565b945060018216600081146124fe576001811461251057612543565b60ff1983168652602086019350612543565b61251985612ddc565b60005b8381101561253b5781548189015260018201915060208101905061251c565b808801955050505b50505092915050565b612555816130b4565b82525050565b612564816130d8565b82525050565b612573816130ea565b82525050565b600061258482612dfc565b61258e8185612e18565b935061259e81856020860161310b565b6125a781613281565b840191505092915050565b60006125bf601883612e18565b91506125ca8261329f565b602082019050919050565b60006125e2602383612e18565b91506125ed826132c8565b604082019050919050565b6000612605602683612e18565b915061261082613317565b604082019050919050565b6000612628602283612e18565b915061263382613366565b604082019050919050565b600061264b600283612e29565b9150612656826133b5565b600282019050919050565b600061266e601d83612e18565b9150612679826133de565b602082019050919050565b6000612691602683612e18565b915061269c82613407565b604082019050919050565b60006126b4602283612e18565b91506126bf82613456565b604082019050919050565b60006126d7601583612e18565b91506126e2826134a5565b602082019050919050565b60006126fa602283612e18565b9150612705826134ce565b604082019050919050565b600061271d602583612e18565b91506127288261351d565b604082019050919050565b6000612740601e83612e18565b915061274b8261356c565b602082019050919050565b6000612763602883612e18565b915061276e82613595565b604082019050919050565b6000612786602083612e18565b9150612791826135e4565b602082019050919050565b60006127a9602583612e18565b91506127b48261360d565b604082019050919050565b60006127cc602483612e18565b91506127d78261365c565b604082019050919050565b60006127ef602583612e18565b91506127fa826136ab565b604082019050919050565b6000612812601f83612e18565b915061281d826136fa565b602082019050919050565b6000612835602083612e18565b915061284082613723565b602082019050919050565b6128548161309d565b82525050565b612863816130a7565b82525050565b60006128748261263e565b9150612880828561247c565b602082019150612890828461247c565b6020820191508190509392505050565b60006020820190506128b5600083018461244f565b92915050565b60006020820190506128d0600083018461245e565b92915050565b60006020820190506128eb600083018461246d565b92915050565b600060c082019050612906600083018961246d565b612913602083018861244f565b612920604083018761244f565b61292d606083018661284b565b61293a608083018561284b565b61294760a083018461284b565b979650505050505050565b600060a082019050612967600083018861246d565b612974602083018761246d565b612981604083018661246d565b61298e606083018561284b565b61299b608083018461244f565b9695505050505050565b60006080820190506129ba600083018761246d565b6129c7602083018661285a565b6129d4604083018561246d565b6129e1606083018461246d565b95945050505050565b60006020820190508181036000830152612a048184612493565b905092915050565b60006020820190508181036000830152612a2681846124cc565b905092915050565b6000602082019050612a43600083018461254c565b92915050565b6000604082019050612a5e600083018561255b565b612a6b602083018461255b565b9392505050565b6000604082019050612a87600083018561256a565b8181036020830152612a9981846124cc565b90509392505050565b60006020820190508181036000830152612abc8184612579565b905092915050565b60006020820190508181036000830152612add816125b2565b9050919050565b60006020820190508181036000830152612afd816125d5565b9050919050565b60006020820190508181036000830152612b1d816125f8565b9050919050565b60006020820190508181036000830152612b3d8161261b565b9050919050565b60006020820190508181036000830152612b5d81612661565b9050919050565b60006020820190508181036000830152612b7d81612684565b9050919050565b60006020820190508181036000830152612b9d816126a7565b9050919050565b60006020820190508181036000830152612bbd816126ca565b9050919050565b60006020820190508181036000830152612bdd816126ed565b9050919050565b60006020820190508181036000830152612bfd81612710565b9050919050565b60006020820190508181036000830152612c1d81612733565b9050919050565b60006020820190508181036000830152612c3d81612756565b9050919050565b60006020820190508181036000830152612c5d81612779565b9050919050565b60006020820190508181036000830152612c7d8161279c565b9050919050565b60006020820190508181036000830152612c9d816127bf565b9050919050565b60006020820190508181036000830152612cbd816127e2565b9050919050565b60006020820190508181036000830152612cdd81612805565b9050919050565b60006020820190508181036000830152612cfd81612828565b9050919050565b6000602082019050612d19600083018461284b565b92915050565b6000608082019050612d34600083018761284b565b612d41602083018661244f565b612d4e604083018561244f565b8181036060830152612d608184612579565b905095945050505050565b6000602082019050612d80600083018461285a565b92915050565b6000612d90612da1565b9050612d9c8282613170565b919050565b6000604051905090565b600067ffffffffffffffff821115612dc657612dc5613252565b5b612dcf82613281565b9050602081019050919050565b60008190508160005260206000209050919050565b600081519050919050565b600081519050919050565b600082825260208201905092915050565b600082825260208201905092915050565b600081905092915050565b6000612e3f8261309d565b9150612e4a8361309d565b9250827fffffffffffffffffffffffffffffffffffffffffffffffffffffffffffffffff03821115612e7f57612e7e6131f4565b5b828201905092915050565b6000808291508390505b6001851115612ed457808604811115612eb057612eaf6131f4565b5b6001851615612ebf5780820291505b8081029050612ecd85613292565b9450612e94565b94509492505050565b6000612ee88261309d565b9150612ef3836130a7565b9250612f207fffffffffffffffffffffffffffffffffffffffffffffffffffffffffffffffff8484612f28565b905092915050565b600082612f385760019050612ff4565b81612f465760009050612ff4565b8160018114612f5c5760028114612f6657612f95565b6001915050612ff4565b60ff841115612f7857612f776131f4565b5b8360020a915084821115612f8f57612f8e6131f4565b5b50612ff4565b5060208310610133831016604e8410600b8410161715612fca5782820a905083811115612fc557612fc46131f4565b5b612ff4565b612fd78484846001612e8a565b92509050818404811115612fee57612fed6131f4565b5b81810290505b9392505050565b60006130068261309d565b91506130118361309d565b9250817fffffffffffffffffffffffffffffffffffffffffffffffffffffffffffffffff048311821515161561304a576130496131f4565b5b828202905092915050565b60006130608261307d565b9050919050565b60008115159050919050565b6000819050919050565b600073ffffffffffffffffffffffffffffffffffffffff82169050919050565b6000819050919050565b600060ff82169050919050565b60006130bf826130c6565b9050919050565b60006130d18261307d565b9050919050565b60006130e38261309d565b9050919050565b60006130f58261309d565b9050919050565b82818337600083830152505050565b60005b8381101561312957808201518184015260208101905061310e565b83811115613138576000848401525b50505050565b6000600282049050600182168061315657607f821691505b6020821081141561316a57613169613223565b5b50919050565b61317982613281565b810181811067ffffffffffffffff8211171561319857613197613252565b5b80604052505050565b60006131ac8261309d565b91507fffffffffffffffffffffffffffffffffffffffffffffffffffffffffffffffff8214156131df576131de6131f4565b5b600182019050919050565b6000819050919050565b7f4e487b7100000000000000000000000000000000000000000000000000000000600052601160045260246000fd5b7f4e487b7100000000000000000000000000000000000000000000000000000000600052602260045260246000fd5b7f4e487b7100000000000000000000000000000000000000000000000000000000600052604160045260246000fd5b6000601f19601f8301169050919050565b60008160011c9050919050565b7f45434453413a20696e76616c6964207369676e61747572650000000000000000600082015250565b7f45524332303a207472616e7366657220746f20746865207a65726f206164647260008201527f6573730000000000000000000000000000000000000000000000000000000000602082015250565b7f4f776e61626c653a206e6577206f776e657220697320746865207a65726f206160008201527f6464726573730000000000000000000000000000000000000000000000000000602082015250565b7f45524332303a20617070726f766520746f20746865207a65726f20616464726560008201527f7373000000000000000000000000000000000000000000000000000000000000602082015250565b7f1901000000000000000000000000000000000000000000000000000000000000600082015250565b7f45524332305065726d69743a206578706972656420646561646c696e65000000600082015250565b7f45524332303a207472616e7366657220616d6f756e742065786365656473206260008201527f616c616e63650000000000000000000000000000000000000000000000000000602082015250565b7f45434453413a20696e76616c6964207369676e6174757265202773272076616c60008201527f7565000000000000000000000000000000000000000000000000000000000000602082015250565b7f496e73756666696369656e742062616c616e63652e0000000000000000000000600082015250565b7f45434453413a20696e76616c6964207369676e6174757265202776272076616c60008201527f7565000000000000000000000000000000000000000000000000000000000000602082015250565b7f43616e206f6e6c792062652063616c6c6564206279207468652061726269747260008201527f61746f722e000000000000000000000000000000000000000000000000000000602082015250565b7f45524332305065726d69743a20696e76616c6964207369676e61747572650000600082015250565b7f45524332303a207472616e7366657220616d6f756e742065786365656473206160008201527f6c6c6f77616e6365000000000000000000000000000000000000000000000000602082015250565b7f4f776e61626c653a2063616c6c6572206973206e6f7420746865206f776e6572600082015250565b7f45524332303a207472616e736665722066726f6d20746865207a65726f20616460008201527f6472657373000000000000000000000000000000000000000000000000000000602082015250565b7f45524332303a20617070726f76652066726f6d20746865207a65726f2061646460008201527f7265737300000000000000000000000000000000000000000000000000000000602082015250565b7f45524332303a2064656372656173656420616c6c6f77616e63652062656c6f7760008201527f207a65726f000000000000000000000000000000000000000000000000000000602082015250565b7f45524332303a206d696e7420746f20746865207a65726f206164647265737300600082015250565b7f466565206d75737420657175616c206172626974726174696f6e20636f73742e600082015250565b61375581613055565b811461376057600080fd5b50565b61376c81613073565b811461377757600080fd5b50565b6137838161309d565b811461378e57600080fd5b50565b61379a816130a7565b81146137a557600080fd5b5056fea26469706673582212201580eb1ccf6708774a902458dbadc761372df77bb4893141b507a03cc1f0aeb664736f6c63430008040033",
  "linkReferences": {},
  "deployedLinkReferences": {}
}